{
  "_format": "hh-sol-artifact-1",
  "contractName": "TicketMaster",
  "sourceName": "contracts/TicketMaster.sol",
  "abi": [
    {
      "inputs": [],
      "stateMutability": "nonpayable",
      "type": "constructor"
    },
    {
      "anonymous": false,
      "inputs": [
        {
          "indexed": true,
          "internalType": "address",
          "name": "owner",
          "type": "address"
        },
        {
          "indexed": true,
          "internalType": "address",
          "name": "approved",
          "type": "address"
        },
        {
          "indexed": true,
          "internalType": "uint256",
          "name": "tokenId",
          "type": "uint256"
        }
      ],
      "name": "Approval",
      "type": "event"
    },
    {
      "anonymous": false,
      "inputs": [
        {
          "indexed": true,
          "internalType": "address",
          "name": "owner",
          "type": "address"
        },
        {
          "indexed": true,
          "internalType": "address",
          "name": "operator",
          "type": "address"
        },
        {
          "indexed": false,
          "internalType": "bool",
          "name": "approved",
          "type": "bool"
        }
      ],
      "name": "ApprovalForAll",
      "type": "event"
    },
    {
      "anonymous": false,
      "inputs": [
        {
          "indexed": true,
          "internalType": "address",
          "name": "previousOwner",
          "type": "address"
        },
        {
          "indexed": true,
          "internalType": "address",
          "name": "newOwner",
          "type": "address"
        }
      ],
      "name": "OwnershipTransferred",
      "type": "event"
    },
    {
      "anonymous": false,
      "inputs": [
        {
          "indexed": true,
          "internalType": "address",
          "name": "_recipient",
          "type": "address"
        },
        {
          "indexed": false,
          "internalType": "uint256",
          "name": "_ticketId",
          "type": "uint256"
        }
      ],
      "name": "TicketCreated",
      "type": "event"
    },
    {
      "anonymous": false,
      "inputs": [
        {
          "indexed": true,
          "internalType": "address",
          "name": "from",
          "type": "address"
        },
        {
          "indexed": true,
          "internalType": "address",
          "name": "to",
          "type": "address"
        },
        {
          "indexed": true,
          "internalType": "uint256",
          "name": "tokenId",
          "type": "uint256"
        }
      ],
      "name": "Transfer",
      "type": "event"
    },
    {
      "inputs": [
        {
          "internalType": "address",
          "name": "to",
          "type": "address"
        },
        {
          "internalType": "uint256",
          "name": "tokenId",
          "type": "uint256"
        }
      ],
      "name": "approve",
      "outputs": [],
      "stateMutability": "nonpayable",
      "type": "function"
    },
    {
      "inputs": [
        {
          "internalType": "address",
          "name": "owner",
          "type": "address"
        }
      ],
      "name": "balanceOf",
      "outputs": [
        {
          "internalType": "uint256",
          "name": "",
          "type": "uint256"
        }
      ],
      "stateMutability": "view",
      "type": "function"
    },
    {
      "inputs": [
        {
          "internalType": "uint256",
          "name": "_ticketId",
          "type": "uint256"
        },
        {
          "internalType": "string",
          "name": "_boopURI",
          "type": "string"
        }
      ],
      "name": "boopTicket",
      "outputs": [],
      "stateMutability": "nonpayable",
      "type": "function"
    },
    {
      "inputs": [
        {
          "internalType": "address",
          "name": "_recipient",
          "type": "address"
        },
        {
          "internalType": "string",
          "name": "_ticketURI",
          "type": "string"
        }
      ],
      "name": "createTicket",
      "outputs": [],
      "stateMutability": "nonpayable",
      "type": "function"
    },
    {
      "inputs": [
        {
          "internalType": "uint256",
          "name": "tokenId",
          "type": "uint256"
        }
      ],
      "name": "getApproved",
      "outputs": [
        {
          "internalType": "address",
          "name": "",
          "type": "address"
        }
      ],
      "stateMutability": "view",
      "type": "function"
    },
    {
      "inputs": [
        {
          "internalType": "address",
          "name": "owner",
          "type": "address"
        },
        {
          "internalType": "address",
          "name": "operator",
          "type": "address"
        }
      ],
      "name": "isApprovedForAll",
      "outputs": [
        {
          "internalType": "bool",
          "name": "",
          "type": "bool"
        }
      ],
      "stateMutability": "view",
      "type": "function"
    },
    {
      "inputs": [],
      "name": "name",
      "outputs": [
        {
          "internalType": "string",
          "name": "",
          "type": "string"
        }
      ],
      "stateMutability": "view",
      "type": "function"
    },
    {
      "inputs": [],
      "name": "owner",
      "outputs": [
        {
          "internalType": "address",
          "name": "",
          "type": "address"
        }
      ],
      "stateMutability": "view",
      "type": "function"
    },
    {
      "inputs": [
        {
          "internalType": "uint256",
          "name": "tokenId",
          "type": "uint256"
        }
      ],
      "name": "ownerOf",
      "outputs": [
        {
          "internalType": "address",
          "name": "",
          "type": "address"
        }
      ],
      "stateMutability": "view",
      "type": "function"
    },
    {
      "inputs": [],
      "name": "renounceOwnership",
      "outputs": [],
      "stateMutability": "nonpayable",
      "type": "function"
    },
    {
      "inputs": [
        {
          "internalType": "address",
          "name": "from",
          "type": "address"
        },
        {
          "internalType": "address",
          "name": "to",
          "type": "address"
        },
        {
          "internalType": "uint256",
          "name": "tokenId",
          "type": "uint256"
        }
      ],
      "name": "safeTransferFrom",
      "outputs": [],
      "stateMutability": "nonpayable",
      "type": "function"
    },
    {
      "inputs": [
        {
          "internalType": "address",
          "name": "from",
          "type": "address"
        },
        {
          "internalType": "address",
          "name": "to",
          "type": "address"
        },
        {
          "internalType": "uint256",
          "name": "tokenId",
          "type": "uint256"
        },
        {
          "internalType": "bytes",
          "name": "_data",
          "type": "bytes"
        }
      ],
      "name": "safeTransferFrom",
      "outputs": [],
      "stateMutability": "nonpayable",
      "type": "function"
    },
    {
      "inputs": [
        {
          "internalType": "address",
          "name": "operator",
          "type": "address"
        },
        {
          "internalType": "bool",
          "name": "approved",
          "type": "bool"
        }
      ],
      "name": "setApprovalForAll",
      "outputs": [],
      "stateMutability": "nonpayable",
      "type": "function"
    },
    {
      "inputs": [
        {
          "internalType": "bytes4",
          "name": "interfaceId",
          "type": "bytes4"
        }
      ],
      "name": "supportsInterface",
      "outputs": [
        {
          "internalType": "bool",
          "name": "",
          "type": "bool"
        }
      ],
      "stateMutability": "view",
      "type": "function"
    },
    {
      "inputs": [],
      "name": "symbol",
      "outputs": [
        {
          "internalType": "string",
          "name": "",
          "type": "string"
        }
      ],
      "stateMutability": "view",
      "type": "function"
    },
    {
      "inputs": [
        {
          "internalType": "uint256",
          "name": "tokenId",
          "type": "uint256"
        }
      ],
      "name": "tokenURI",
      "outputs": [
        {
          "internalType": "string",
          "name": "",
          "type": "string"
        }
      ],
      "stateMutability": "view",
      "type": "function"
    },
    {
      "inputs": [
        {
          "internalType": "address",
          "name": "from",
          "type": "address"
        },
        {
          "internalType": "address",
          "name": "to",
          "type": "address"
        },
        {
          "internalType": "uint256",
          "name": "tokenId",
          "type": "uint256"
        }
      ],
      "name": "transferFrom",
      "outputs": [],
      "stateMutability": "nonpayable",
      "type": "function"
    },
    {
      "inputs": [
        {
          "internalType": "address",
          "name": "newOwner",
          "type": "address"
        }
      ],
      "name": "transferOwnership",
      "outputs": [],
      "stateMutability": "nonpayable",
      "type": "function"
    }
  ],
  "bytecode": "0x60806040523480156200001157600080fd5b506040518060400160405280600c81526020017f5469636b65746d617374657200000000000000000000000000000000000000008152506040518060400160405280600281526020017f544d00000000000000000000000000000000000000000000000000000000000081525081600090805190602001906200009692919062000171565b508060019080519060200190620000af92919062000171565b5050506000620000c46200016960201b60201c565b905080600760006101000a81548173ffffffffffffffffffffffffffffffffffffffff021916908373ffffffffffffffffffffffffffffffffffffffff1602179055508073ffffffffffffffffffffffffffffffffffffffff16600073ffffffffffffffffffffffffffffffffffffffff167f8be0079c531659141344cd1fd0a4f28419497f9722a3daafe3b4186f6b6457e060405160405180910390a35062000286565b600033905090565b8280546200017f9062000221565b90600052602060002090601f016020900481019282620001a35760008555620001ef565b82601f10620001be57805160ff1916838001178555620001ef565b82800160010185558215620001ef579182015b82811115620001ee578251825591602001919060010190620001d1565b5b509050620001fe919062000202565b5090565b5b808211156200021d57600081600090555060010162000203565b5090565b600060028204905060018216806200023a57607f821691505b6020821081141562000251576200025062000257565b5b50919050565b7f4e487b7100000000000000000000000000000000000000000000000000000000600052602260045260246000fd5b6130d580620002966000396000f3fe608060405234801561001057600080fd5b50600436106101165760003560e01c806370a08231116100a2578063a22cb46511610071578063a22cb465146102cb578063b88d4fde146102e7578063c87b56dd14610303578063e985e9c514610333578063f2fde38b1461036357610116565b806370a0823114610255578063715018a6146102855780638da5cb5b1461028f57806395d89b41146102ad57610116565b806323b872dd116100e957806323b872dd146101b557806342842e0e146101d15780634707746c146101ed5780635d0fd8be146102095780636352211e1461022557610116565b806301ffc9a71461011b57806306fdde031461014b578063081812fc14610169578063095ea7b314610199575b600080fd5b6101356004803603810190610130919061212f565b61037f565b60405161014291906129ed565b60405180910390f35b610153610461565b6040516101609190612a08565b60405180910390f35b610183600480360381019061017e9190612181565b6104f3565b6040516101909190612986565b60405180910390f35b6101b360048036038101906101ae91906120f3565b610578565b005b6101cf60048036038101906101ca9190611f99565b610690565b005b6101eb60048036038101906101e69190611f99565b6106f0565b005b6102076004803603810190610202919061209f565b610710565b005b610223600480360381019061021e91906121aa565b61080b565b005b61023f600480360381019061023a9190612181565b6108c1565b60405161024c9190612986565b60405180910390f35b61026f600480360381019061026a9190611f34565b610973565b60405161027c9190612c6a565b60405180910390f35b61028d610a2b565b005b610297610b68565b6040516102a49190612986565b60405180910390f35b6102b5610b92565b6040516102c29190612a08565b60405180910390f35b6102e560048036038101906102e09190612063565b610c24565b005b61030160048036038101906102fc9190611fe8565b610da5565b005b61031d60048036038101906103189190612181565b610e07565b60405161032a9190612a08565b60405180910390f35b61034d60048036038101906103489190611f5d565b610e19565b60405161035a91906129ed565b60405180910390f35b61037d60048036038101906103789190611f34565b610ead565b005b60007f80ac58cd000000000000000000000000000000000000000000000000000000007bffffffffffffffffffffffffffffffffffffffffffffffffffffffff1916827bffffffffffffffffffffffffffffffffffffffffffffffffffffffff1916148061044a57507f5b5e139f000000000000000000000000000000000000000000000000000000007bffffffffffffffffffffffffffffffffffffffffffffffffffffffff1916827bffffffffffffffffffffffffffffffffffffffffffffffffffffffff1916145b8061045a575061045982611059565b5b9050919050565b60606000805461047090612eca565b80601f016020809104026020016040519081016040528092919081815260200182805461049c90612eca565b80156104e95780601f106104be576101008083540402835291602001916104e9565b820191906000526020600020905b8154815290600101906020018083116104cc57829003601f168201915b5050505050905090565b60006104fe826110c3565b61053d576040517f08c379a000000000000000000000000000000000000000000000000000000000815260040161053490612baa565b60405180910390fd5b6004600083815260200190815260200160002060009054906101000a900473ffffffffffffffffffffffffffffffffffffffff169050919050565b6000610583826108c1565b90508073ffffffffffffffffffffffffffffffffffffffff168373ffffffffffffffffffffffffffffffffffffffff1614156105f4576040517f08c379a00000000000000000000000000000000000000000000000000000000081526004016105eb90612c2a565b60405180910390fd5b8073ffffffffffffffffffffffffffffffffffffffff1661061361112f565b73ffffffffffffffffffffffffffffffffffffffff16148061064257506106418161063c61112f565b610e19565b5b610681576040517f08c379a000000000000000000000000000000000000000000000000000000000815260040161067890612aea565b60405180910390fd5b61068b8383611137565b505050565b6106a161069b61112f565b826111f0565b6106e0576040517f08c379a00000000000000000000000000000000000000000000000000000000081526004016106d790612c4a565b60405180910390fd5b6106eb8383836112ce565b505050565b61070b83838360405180602001604052806000815250610da5565b505050565b61071861112f565b73ffffffffffffffffffffffffffffffffffffffff16610736610b68565b73ffffffffffffffffffffffffffffffffffffffff161461078c576040517f08c379a000000000000000000000000000000000000000000000000000000000815260040161078390612bca565b60405180910390fd5b610796600861152a565b60006107a26008611540565b90506107ae838261154e565b6107b8818361171c565b8273ffffffffffffffffffffffffffffffffffffffff167f1f53feecfc2a9dbbe632c3b5c8d6d675d4f60f1154e618468fc2ea833a0b6702826040516107fe9190612c6a565b60405180910390a2505050565b61081361112f565b73ffffffffffffffffffffffffffffffffffffffff16610831610b68565b73ffffffffffffffffffffffffffffffffffffffff1614610887576040517f08c379a000000000000000000000000000000000000000000000000000000000815260040161087e90612bca565b60405180910390fd5b60016009600084815260200190815260200160002060006101000a81548160ff0219169083151502179055506108bd828261171c565b5050565b6000806002600084815260200190815260200160002060009054906101000a900473ffffffffffffffffffffffffffffffffffffffff169050600073ffffffffffffffffffffffffffffffffffffffff168173ffffffffffffffffffffffffffffffffffffffff16141561096a576040517f08c379a000000000000000000000000000000000000000000000000000000000815260040161096190612b2a565b60405180910390fd5b80915050919050565b60008073ffffffffffffffffffffffffffffffffffffffff168273ffffffffffffffffffffffffffffffffffffffff1614156109e4576040517f08c379a00000000000000000000000000000000000000000000000000000000081526004016109db90612b0a565b60405180910390fd5b600360008373ffffffffffffffffffffffffffffffffffffffff1673ffffffffffffffffffffffffffffffffffffffff168152602001908152602001600020549050919050565b610a3361112f565b73ffffffffffffffffffffffffffffffffffffffff16610a51610b68565b73ffffffffffffffffffffffffffffffffffffffff1614610aa7576040517f08c379a0000000000000000000000000000000000000000000000000000000008152600401610a9e90612bca565b60405180910390fd5b600073ffffffffffffffffffffffffffffffffffffffff16600760009054906101000a900473ffffffffffffffffffffffffffffffffffffffff1673ffffffffffffffffffffffffffffffffffffffff167f8be0079c531659141344cd1fd0a4f28419497f9722a3daafe3b4186f6b6457e060405160405180910390a36000600760006101000a81548173ffffffffffffffffffffffffffffffffffffffff021916908373ffffffffffffffffffffffffffffffffffffffff160217905550565b6000600760009054906101000a900473ffffffffffffffffffffffffffffffffffffffff16905090565b606060018054610ba190612eca565b80601f0160208091040260200160405190810160405280929190818152602001828054610bcd90612eca565b8015610c1a5780601f10610bef57610100808354040283529160200191610c1a565b820191906000526020600020905b815481529060010190602001808311610bfd57829003601f168201915b5050505050905090565b610c2c61112f565b73ffffffffffffffffffffffffffffffffffffffff168273ffffffffffffffffffffffffffffffffffffffff161415610c9a576040517f08c379a0000000000000000000000000000000000000000000000000000000008152600401610c9190612aaa565b60405180910390fd5b8060056000610ca761112f565b73ffffffffffffffffffffffffffffffffffffffff1673ffffffffffffffffffffffffffffffffffffffff16815260200190815260200160002060008473ffffffffffffffffffffffffffffffffffffffff1673ffffffffffffffffffffffffffffffffffffffff16815260200190815260200160002060006101000a81548160ff0219169083151502179055508173ffffffffffffffffffffffffffffffffffffffff16610d5461112f565b73ffffffffffffffffffffffffffffffffffffffff167f17307eab39ab6107e8899845ad3d59bd9653f200f220920489ca2b5937696c3183604051610d9991906129ed565b60405180910390a35050565b610db6610db061112f565b836111f0565b610df5576040517f08c379a0000000000000000000000000000000000000000000000000000000008152600401610dec90612c4a565b60405180910390fd5b610e0184848484611790565b50505050565b6060610e12826117ec565b9050919050565b6000600560008473ffffffffffffffffffffffffffffffffffffffff1673ffffffffffffffffffffffffffffffffffffffff16815260200190815260200160002060008373ffffffffffffffffffffffffffffffffffffffff1673ffffffffffffffffffffffffffffffffffffffff16815260200190815260200160002060009054906101000a900460ff16905092915050565b610eb561112f565b73ffffffffffffffffffffffffffffffffffffffff16610ed3610b68565b73ffffffffffffffffffffffffffffffffffffffff1614610f29576040517f08c379a0000000000000000000000000000000000000000000000000000000008152600401610f2090612bca565b60405180910390fd5b600073ffffffffffffffffffffffffffffffffffffffff168173ffffffffffffffffffffffffffffffffffffffff161415610f99576040517f08c379a0000000000000000000000000000000000000000000000000000000008152600401610f9090612a4a565b60405180910390fd5b8073ffffffffffffffffffffffffffffffffffffffff16600760009054906101000a900473ffffffffffffffffffffffffffffffffffffffff1673ffffffffffffffffffffffffffffffffffffffff167f8be0079c531659141344cd1fd0a4f28419497f9722a3daafe3b4186f6b6457e060405160405180910390a380600760006101000a81548173ffffffffffffffffffffffffffffffffffffffff021916908373ffffffffffffffffffffffffffffffffffffffff16021790555050565b60007f01ffc9a7000000000000000000000000000000000000000000000000000000007bffffffffffffffffffffffffffffffffffffffffffffffffffffffff1916827bffffffffffffffffffffffffffffffffffffffffffffffffffffffff1916149050919050565b60008073ffffffffffffffffffffffffffffffffffffffff166002600084815260200190815260200160002060009054906101000a900473ffffffffffffffffffffffffffffffffffffffff1673ffffffffffffffffffffffffffffffffffffffff1614159050919050565b600033905090565b816004600083815260200190815260200160002060006101000a81548173ffffffffffffffffffffffffffffffffffffffff021916908373ffffffffffffffffffffffffffffffffffffffff160217905550808273ffffffffffffffffffffffffffffffffffffffff166111aa836108c1565b73ffffffffffffffffffffffffffffffffffffffff167f8c5be1e5ebec7d5bd14f71427d1e84f3dd0314c0f7b2291e5b200ac8c7c3b92560405160405180910390a45050565b60006111fb826110c3565b61123a576040517f08c379a000000000000000000000000000000000000000000000000000000000815260040161123190612aca565b60405180910390fd5b6000611245836108c1565b90508073ffffffffffffffffffffffffffffffffffffffff168473ffffffffffffffffffffffffffffffffffffffff1614806112b457508373ffffffffffffffffffffffffffffffffffffffff1661129c846104f3565b73ffffffffffffffffffffffffffffffffffffffff16145b806112c557506112c48185610e19565b5b91505092915050565b8273ffffffffffffffffffffffffffffffffffffffff166112ee826108c1565b73ffffffffffffffffffffffffffffffffffffffff1614611344576040517f08c379a000000000000000000000000000000000000000000000000000000000815260040161133b90612bea565b60405180910390fd5b600073ffffffffffffffffffffffffffffffffffffffff168273ffffffffffffffffffffffffffffffffffffffff1614156113b4576040517f08c379a00000000000000000000000000000000000000000000000000000000081526004016113ab90612a8a565b60405180910390fd5b6113bf83838361193e565b6113ca600082611137565b6001600360008573ffffffffffffffffffffffffffffffffffffffff1673ffffffffffffffffffffffffffffffffffffffff168152602001908152602001600020600082825461141a9190612de0565b925050819055506001600360008473ffffffffffffffffffffffffffffffffffffffff1673ffffffffffffffffffffffffffffffffffffffff16815260200190815260200160002060008282546114719190612d59565b92505081905550816002600083815260200190815260200160002060006101000a81548173ffffffffffffffffffffffffffffffffffffffff021916908373ffffffffffffffffffffffffffffffffffffffff160217905550808273ffffffffffffffffffffffffffffffffffffffff168473ffffffffffffffffffffffffffffffffffffffff167fddf252ad1be2c89b69c2b068fc378daa952ba7f163c4a11628f55a4df523b3ef60405160405180910390a4505050565b6001816000016000828254019250508190555050565b600081600001549050919050565b600073ffffffffffffffffffffffffffffffffffffffff168273ffffffffffffffffffffffffffffffffffffffff1614156115be576040517f08c379a00000000000000000000000000000000000000000000000000000000081526004016115b590612b6a565b60405180910390fd5b6115c7816110c3565b15611607576040517f08c379a00000000000000000000000000000000000000000000000000000000081526004016115fe90612a6a565b60405180910390fd5b6116136000838361193e565b6001600360008473ffffffffffffffffffffffffffffffffffffffff1673ffffffffffffffffffffffffffffffffffffffff16815260200190815260200160002060008282546116639190612d59565b92505081905550816002600083815260200190815260200160002060006101000a81548173ffffffffffffffffffffffffffffffffffffffff021916908373ffffffffffffffffffffffffffffffffffffffff160217905550808273ffffffffffffffffffffffffffffffffffffffff16600073ffffffffffffffffffffffffffffffffffffffff167fddf252ad1be2c89b69c2b068fc378daa952ba7f163c4a11628f55a4df523b3ef60405160405180910390a45050565b611725826110c3565b611764576040517f08c379a000000000000000000000000000000000000000000000000000000000815260040161175b90612b4a565b60405180910390fd5b8060066000848152602001908152602001600020908051906020019061178b929190611d58565b505050565b61179b8484846112ce565b6117a784848484611943565b6117e6576040517f08c379a00000000000000000000000000000000000000000000000000000000081526004016117dd90612a2a565b60405180910390fd5b50505050565b60606117f7826110c3565b611836576040517f08c379a000000000000000000000000000000000000000000000000000000000815260040161182d90612b8a565b60405180910390fd5b600060066000848152602001908152602001600020805461185690612eca565b80601f016020809104026020016040519081016040528092919081815260200182805461188290612eca565b80156118cf5780601f106118a4576101008083540402835291602001916118cf565b820191906000526020600020905b8154815290600101906020018083116118b257829003601f168201915b5050505050905060006118e0611ada565b90506000815114156118f6578192505050611939565b60008251111561192b578082604051602001611913929190612962565b60405160208183030381529060405292505050611939565b61193484611af1565b925050505b919050565b505050565b60006119648473ffffffffffffffffffffffffffffffffffffffff16611b98565b15611acd578373ffffffffffffffffffffffffffffffffffffffff1663150b7a0261198d61112f565b8786866040518563ffffffff1660e01b81526004016119af94939291906129a1565b602060405180830381600087803b1580156119c957600080fd5b505af19250505080156119fa57506040513d601f19601f820116820180604052508101906119f79190612158565b60015b611a7d573d8060008114611a2a576040519150601f19603f3d011682016040523d82523d6000602084013e611a2f565b606091505b50600081511415611a75576040517f08c379a0000000000000000000000000000000000000000000000000000000008152600401611a6c90612a2a565b60405180910390fd5b805181602001fd5b63150b7a0260e01b7bffffffffffffffffffffffffffffffffffffffffffffffffffffffff1916817bffffffffffffffffffffffffffffffffffffffffffffffffffffffff191614915050611ad2565b600190505b949350505050565b606060405180602001604052806000815250905090565b6060611afc826110c3565b611b3b576040517f08c379a0000000000000000000000000000000000000000000000000000000008152600401611b3290612c0a565b60405180910390fd5b6000611b45611ada565b90506000815111611b655760405180602001604052806000815250611b90565b80611b6f84611bab565b604051602001611b80929190612962565b6040516020818303038152906040525b915050919050565b600080823b905060008111915050919050565b60606000821415611bf3576040518060400160405280600181526020017f30000000000000000000000000000000000000000000000000000000000000008152509050611d53565b600082905060005b60008214611c25578080611c0e90612efc565b915050600a82611c1e9190612daf565b9150611bfb565b60008167ffffffffffffffff811115611c67577f4e487b7100000000000000000000000000000000000000000000000000000000600052604160045260246000fd5b6040519080825280601f01601f191660200182016040528015611c995781602001600182028036833780820191505090505b5090505b60008514611d4c57600182611cb29190612de0565b9150600a85611cc19190612f45565b6030611ccd9190612d59565b60f81b818381518110611d09577f4e487b7100000000000000000000000000000000000000000000000000000000600052603260045260246000fd5b60200101907effffffffffffffffffffffffffffffffffffffffffffffffffffffffffffff1916908160001a905350600a85611d459190612daf565b9450611c9d565b8093505050505b919050565b828054611d6490612eca565b90600052602060002090601f016020900481019282611d865760008555611dcd565b82601f10611d9f57805160ff1916838001178555611dcd565b82800160010185558215611dcd579182015b82811115611dcc578251825591602001919060010190611db1565b5b509050611dda9190611dde565b5090565b5b80821115611df7576000816000905550600101611ddf565b5090565b6000611e0e611e0984612cb6565b612c85565b905082815260208101848484011115611e2657600080fd5b611e31848285612e88565b509392505050565b6000611e4c611e4784612ce6565b612c85565b905082815260208101848484011115611e6457600080fd5b611e6f848285612e88565b509392505050565b600081359050611e8681613043565b92915050565b600081359050611e9b8161305a565b92915050565b600081359050611eb081613071565b92915050565b600081519050611ec581613071565b92915050565b600082601f830112611edc57600080fd5b8135611eec848260208601611dfb565b91505092915050565b600082601f830112611f0657600080fd5b8135611f16848260208601611e39565b91505092915050565b600081359050611f2e81613088565b92915050565b600060208284031215611f4657600080fd5b6000611f5484828501611e77565b91505092915050565b60008060408385031215611f7057600080fd5b6000611f7e85828601611e77565b9250506020611f8f85828601611e77565b9150509250929050565b600080600060608486031215611fae57600080fd5b6000611fbc86828701611e77565b9350506020611fcd86828701611e77565b9250506040611fde86828701611f1f565b9150509250925092565b60008060008060808587031215611ffe57600080fd5b600061200c87828801611e77565b945050602061201d87828801611e77565b935050604061202e87828801611f1f565b925050606085013567ffffffffffffffff81111561204b57600080fd5b61205787828801611ecb565b91505092959194509250565b6000806040838503121561207657600080fd5b600061208485828601611e77565b925050602061209585828601611e8c565b9150509250929050565b600080604083850312156120b257600080fd5b60006120c085828601611e77565b925050602083013567ffffffffffffffff8111156120dd57600080fd5b6120e985828601611ef5565b9150509250929050565b6000806040838503121561210657600080fd5b600061211485828601611e77565b925050602061212585828601611f1f565b9150509250929050565b60006020828403121561214157600080fd5b600061214f84828501611ea1565b91505092915050565b60006020828403121561216a57600080fd5b600061217884828501611eb6565b91505092915050565b60006020828403121561219357600080fd5b60006121a184828501611f1f565b91505092915050565b600080604083850312156121bd57600080fd5b60006121cb85828601611f1f565b925050602083013567ffffffffffffffff8111156121e857600080fd5b6121f485828601611ef5565b9150509250929050565b61220781612e14565b82525050565b61221681612e26565b82525050565b600061222782612d16565b6122318185612d2c565b9350612241818560208601612e97565b61224a81613032565b840191505092915050565b600061226082612d21565b61226a8185612d3d565b935061227a818560208601612e97565b61228381613032565b840191505092915050565b600061229982612d21565b6122a38185612d4e565b93506122b3818560208601612e97565b80840191505092915050565b60006122cc603283612d3d565b91507f4552433732313a207472616e7366657220746f206e6f6e20455243373231526560008301527f63656976657220696d706c656d656e74657200000000000000000000000000006020830152604082019050919050565b6000612332602683612d3d565b91507f4f776e61626c653a206e6577206f776e657220697320746865207a65726f206160008301527f64647265737300000000000000000000000000000000000000000000000000006020830152604082019050919050565b6000612398601c83612d3d565b91507f4552433732313a20746f6b656e20616c7265616479206d696e746564000000006000830152602082019050919050565b60006123d8602483612d3d565b91507f4552433732313a207472616e7366657220746f20746865207a65726f2061646460008301527f72657373000000000000000000000000000000000000000000000000000000006020830152604082019050919050565b600061243e601983612d3d565b91507f4552433732313a20617070726f766520746f2063616c6c6572000000000000006000830152602082019050919050565b600061247e602c83612d3d565b91507f4552433732313a206f70657261746f7220717565727920666f72206e6f6e657860008301527f697374656e7420746f6b656e00000000000000000000000000000000000000006020830152604082019050919050565b60006124e4603883612d3d565b91507f4552433732313a20617070726f76652063616c6c6572206973206e6f74206f7760008301527f6e6572206e6f7220617070726f76656420666f7220616c6c00000000000000006020830152604082019050919050565b600061254a602a83612d3d565b91507f4552433732313a2062616c616e636520717565727920666f7220746865207a6560008301527f726f2061646472657373000000000000000000000000000000000000000000006020830152604082019050919050565b60006125b0602983612d3d565b91507f4552433732313a206f776e657220717565727920666f72206e6f6e657869737460008301527f656e7420746f6b656e00000000000000000000000000000000000000000000006020830152604082019050919050565b6000612616602e83612d3d565b91507f45524337323155524953746f726167653a2055524920736574206f66206e6f6e60008301527f6578697374656e7420746f6b656e0000000000000000000000000000000000006020830152604082019050919050565b600061267c602083612d3d565b91507f4552433732313a206d696e7420746f20746865207a65726f20616464726573736000830152602082019050919050565b60006126bc603183612d3d565b91507f45524337323155524953746f726167653a2055524920717565727920666f722060008301527f6e6f6e6578697374656e7420746f6b656e0000000000000000000000000000006020830152604082019050919050565b6000612722602c83612d3d565b91507f4552433732313a20617070726f76656420717565727920666f72206e6f6e657860008301527f697374656e7420746f6b656e00000000000000000000000000000000000000006020830152604082019050919050565b6000612788602083612d3d565b91507f4f776e61626c653a2063616c6c6572206973206e6f7420746865206f776e65726000830152602082019050919050565b60006127c8602983612d3d565b91507f4552433732313a207472616e73666572206f6620746f6b656e2074686174206960008301527f73206e6f74206f776e00000000000000000000000000000000000000000000006020830152604082019050919050565b600061282e602f83612d3d565b91507f4552433732314d657461646174613a2055524920717565727920666f72206e6f60008301527f6e6578697374656e7420746f6b656e00000000000000000000000000000000006020830152604082019050919050565b6000612894602183612d3d565b91507f4552433732313a20617070726f76616c20746f2063757272656e74206f776e6560008301527f72000000000000000000000000000000000000000000000000000000000000006020830152604082019050919050565b60006128fa603183612d3d565b91507f4552433732313a207472616e736665722063616c6c6572206973206e6f74206f60008301527f776e6572206e6f7220617070726f7665640000000000000000000000000000006020830152604082019050919050565b61295c81612e7e565b82525050565b600061296e828561228e565b915061297a828461228e565b91508190509392505050565b600060208201905061299b60008301846121fe565b92915050565b60006080820190506129b660008301876121fe565b6129c360208301866121fe565b6129d06040830185612953565b81810360608301526129e2818461221c565b905095945050505050565b6000602082019050612a02600083018461220d565b92915050565b60006020820190508181036000830152612a228184612255565b905092915050565b60006020820190508181036000830152612a43816122bf565b9050919050565b60006020820190508181036000830152612a6381612325565b9050919050565b60006020820190508181036000830152612a838161238b565b9050919050565b60006020820190508181036000830152612aa3816123cb565b9050919050565b60006020820190508181036000830152612ac381612431565b9050919050565b60006020820190508181036000830152612ae381612471565b9050919050565b60006020820190508181036000830152612b03816124d7565b9050919050565b60006020820190508181036000830152612b238161253d565b9050919050565b60006020820190508181036000830152612b43816125a3565b9050919050565b60006020820190508181036000830152612b6381612609565b9050919050565b60006020820190508181036000830152612b838161266f565b9050919050565b60006020820190508181036000830152612ba3816126af565b9050919050565b60006020820190508181036000830152612bc381612715565b9050919050565b60006020820190508181036000830152612be38161277b565b9050919050565b60006020820190508181036000830152612c03816127bb565b9050919050565b60006020820190508181036000830152612c2381612821565b9050919050565b60006020820190508181036000830152612c4381612887565b9050919050565b60006020820190508181036000830152612c63816128ed565b9050919050565b6000602082019050612c7f6000830184612953565b92915050565b6000604051905081810181811067ffffffffffffffff82111715612cac57612cab613003565b5b8060405250919050565b600067ffffffffffffffff821115612cd157612cd0613003565b5b601f19601f8301169050602081019050919050565b600067ffffffffffffffff821115612d0157612d00613003565b5b601f19601f8301169050602081019050919050565b600081519050919050565b600081519050919050565b600082825260208201905092915050565b600082825260208201905092915050565b600081905092915050565b6000612d6482612e7e565b9150612d6f83612e7e565b9250827fffffffffffffffffffffffffffffffffffffffffffffffffffffffffffffffff03821115612da457612da3612f76565b5b828201905092915050565b6000612dba82612e7e565b9150612dc583612e7e565b925082612dd557612dd4612fa5565b5b828204905092915050565b6000612deb82612e7e565b9150612df683612e7e565b925082821015612e0957612e08612f76565b5b828203905092915050565b6000612e1f82612e5e565b9050919050565b60008115159050919050565b60007fffffffff0000000000000000000000000000000000000000000000000000000082169050919050565b600073ffffffffffffffffffffffffffffffffffffffff82169050919050565b6000819050919050565b82818337600083830152505050565b60005b83811015612eb5578082015181840152602081019050612e9a565b83811115612ec4576000848401525b50505050565b60006002820490506001821680612ee257607f821691505b60208210811415612ef657612ef5612fd4565b5b50919050565b6000612f0782612e7e565b91507fffffffffffffffffffffffffffffffffffffffffffffffffffffffffffffffff821415612f3a57612f39612f76565b5b600182019050919050565b6000612f5082612e7e565b9150612f5b83612e7e565b925082612f6b57612f6a612fa5565b5b828206905092915050565b7f4e487b7100000000000000000000000000000000000000000000000000000000600052601160045260246000fd5b7f4e487b7100000000000000000000000000000000000000000000000000000000600052601260045260246000fd5b7f4e487b7100000000000000000000000000000000000000000000000000000000600052602260045260246000fd5b7f4e487b7100000000000000000000000000000000000000000000000000000000600052604160045260246000fd5b6000601f19601f8301169050919050565b61304c81612e14565b811461305757600080fd5b50565b61306381612e26565b811461306e57600080fd5b50565b61307a81612e32565b811461308557600080fd5b50565b61309181612e7e565b811461309c57600080fd5b5056fea26469706673582212200d2db573bc09161fc3117ab98057a81133fab36c541b5f6fe5790a99e0d5f4a264736f6c63430008000033",
  "linkReferences": {},
  "deployedLinkReferences": {}
}