{
  "_format": "hh-sol-artifact-1",
  "contractName": "TicketMaster",
  "sourceName": "contracts/TicketMaster.sol",
  "abi": [
    {
      "inputs": [
        {
          "internalType": "uint256",
          "name": "_totalSupply",
          "type": "uint256"
        },
        {
          "internalType": "string",
          "name": "_ticketURI",
          "type": "string"
        }
      ],
      "stateMutability": "nonpayable",
      "type": "constructor"
    },
    {
      "anonymous": false,
      "inputs": [
        {
          "indexed": true,
          "internalType": "address",
          "name": "owner",
          "type": "address"
        },
        {
          "indexed": true,
          "internalType": "address",
          "name": "approved",
          "type": "address"
        },
        {
          "indexed": true,
          "internalType": "uint256",
          "name": "tokenId",
          "type": "uint256"
        }
      ],
      "name": "Approval",
      "type": "event"
    },
    {
      "anonymous": false,
      "inputs": [
        {
          "indexed": true,
          "internalType": "address",
          "name": "owner",
          "type": "address"
        },
        {
          "indexed": true,
          "internalType": "address",
          "name": "operator",
          "type": "address"
        },
        {
          "indexed": false,
          "internalType": "bool",
          "name": "approved",
          "type": "bool"
        }
      ],
      "name": "ApprovalForAll",
      "type": "event"
    },
    {
      "anonymous": false,
      "inputs": [
        {
          "indexed": true,
          "internalType": "address",
          "name": "previousOwner",
          "type": "address"
        },
        {
          "indexed": true,
          "internalType": "address",
          "name": "newOwner",
          "type": "address"
        }
      ],
      "name": "OwnershipTransferred",
      "type": "event"
    },
    {
      "anonymous": false,
      "inputs": [
        {
          "indexed": false,
          "internalType": "uint256",
          "name": "ticketId",
          "type": "uint256"
        }
      ],
      "name": "TicketBooped",
      "type": "event"
    },
    {
      "anonymous": false,
      "inputs": [
        {
          "indexed": true,
          "internalType": "address",
          "name": "recipient",
          "type": "address"
        },
        {
          "indexed": false,
          "internalType": "uint256",
          "name": "ticketId",
          "type": "uint256"
        }
      ],
      "name": "TicketCreated",
      "type": "event"
    },
    {
      "anonymous": false,
      "inputs": [
        {
          "indexed": true,
          "internalType": "address",
          "name": "from",
          "type": "address"
        },
        {
          "indexed": true,
          "internalType": "address",
          "name": "to",
          "type": "address"
        },
        {
          "indexed": true,
          "internalType": "uint256",
          "name": "tokenId",
          "type": "uint256"
        }
      ],
      "name": "Transfer",
      "type": "event"
    },
    {
      "inputs": [
        {
          "internalType": "address",
          "name": "to",
          "type": "address"
        },
        {
          "internalType": "uint256",
          "name": "tokenId",
          "type": "uint256"
        }
      ],
      "name": "approve",
      "outputs": [],
      "stateMutability": "nonpayable",
      "type": "function"
    },
    {
      "inputs": [
        {
          "internalType": "address",
          "name": "owner",
          "type": "address"
        }
      ],
      "name": "balanceOf",
      "outputs": [
        {
          "internalType": "uint256",
          "name": "",
          "type": "uint256"
        }
      ],
      "stateMutability": "view",
      "type": "function"
    },
    {
      "inputs": [
        {
          "internalType": "uint256",
          "name": "_ticketId",
          "type": "uint256"
        },
        {
          "internalType": "string",
          "name": "_boopURI",
          "type": "string"
        }
      ],
      "name": "boopTicket",
      "outputs": [],
      "stateMutability": "nonpayable",
      "type": "function"
    },
    {
      "inputs": [
        {
          "internalType": "uint256",
          "name": "",
          "type": "uint256"
        }
      ],
      "name": "booped",
      "outputs": [
        {
          "internalType": "bool",
          "name": "",
          "type": "bool"
        }
      ],
      "stateMutability": "view",
      "type": "function"
    },
    {
      "inputs": [
        {
          "internalType": "address",
          "name": "_recipient",
          "type": "address"
        },
        {
          "internalType": "string",
          "name": "_ticketURI",
          "type": "string"
        }
      ],
      "name": "createTicket",
      "outputs": [],
      "stateMutability": "nonpayable",
      "type": "function"
    },
    {
      "inputs": [
        {
          "internalType": "uint256",
          "name": "tokenId",
          "type": "uint256"
        }
      ],
      "name": "getApproved",
      "outputs": [
        {
          "internalType": "address",
          "name": "",
          "type": "address"
        }
      ],
      "stateMutability": "view",
      "type": "function"
    },
    {
      "inputs": [
        {
          "internalType": "address",
          "name": "owner",
          "type": "address"
        },
        {
          "internalType": "address",
          "name": "operator",
          "type": "address"
        }
      ],
      "name": "isApprovedForAll",
      "outputs": [
        {
          "internalType": "bool",
          "name": "",
          "type": "bool"
        }
      ],
      "stateMutability": "view",
      "type": "function"
    },
    {
      "inputs": [],
      "name": "name",
      "outputs": [
        {
          "internalType": "string",
          "name": "",
          "type": "string"
        }
      ],
      "stateMutability": "view",
      "type": "function"
    },
    {
      "inputs": [],
      "name": "owner",
      "outputs": [
        {
          "internalType": "address",
          "name": "",
          "type": "address"
        }
      ],
      "stateMutability": "view",
      "type": "function"
    },
    {
      "inputs": [
        {
          "internalType": "uint256",
          "name": "tokenId",
          "type": "uint256"
        }
      ],
      "name": "ownerOf",
      "outputs": [
        {
          "internalType": "address",
          "name": "",
          "type": "address"
        }
      ],
      "stateMutability": "view",
      "type": "function"
    },
    {
      "inputs": [],
      "name": "renounceOwnership",
      "outputs": [],
      "stateMutability": "nonpayable",
      "type": "function"
    },
    {
      "inputs": [
        {
          "internalType": "address",
          "name": "from",
          "type": "address"
        },
        {
          "internalType": "address",
          "name": "to",
          "type": "address"
        },
        {
          "internalType": "uint256",
          "name": "tokenId",
          "type": "uint256"
        }
      ],
      "name": "safeTransferFrom",
      "outputs": [],
      "stateMutability": "nonpayable",
      "type": "function"
    },
    {
      "inputs": [
        {
          "internalType": "address",
          "name": "from",
          "type": "address"
        },
        {
          "internalType": "address",
          "name": "to",
          "type": "address"
        },
        {
          "internalType": "uint256",
          "name": "tokenId",
          "type": "uint256"
        },
        {
          "internalType": "bytes",
          "name": "_data",
          "type": "bytes"
        }
      ],
      "name": "safeTransferFrom",
      "outputs": [],
      "stateMutability": "nonpayable",
      "type": "function"
    },
    {
      "inputs": [
        {
          "internalType": "address",
          "name": "operator",
          "type": "address"
        },
        {
          "internalType": "bool",
          "name": "approved",
          "type": "bool"
        }
      ],
      "name": "setApprovalForAll",
      "outputs": [],
      "stateMutability": "nonpayable",
      "type": "function"
    },
    {
      "inputs": [
        {
          "internalType": "bytes4",
          "name": "interfaceId",
          "type": "bytes4"
        }
      ],
      "name": "supportsInterface",
      "outputs": [
        {
          "internalType": "bool",
          "name": "",
          "type": "bool"
        }
      ],
      "stateMutability": "view",
      "type": "function"
    },
    {
      "inputs": [],
      "name": "symbol",
      "outputs": [
        {
          "internalType": "string",
          "name": "",
          "type": "string"
        }
      ],
      "stateMutability": "view",
      "type": "function"
    },
    {
      "inputs": [
        {
          "internalType": "uint256",
          "name": "tokenId",
          "type": "uint256"
        }
      ],
      "name": "tokenURI",
      "outputs": [
        {
          "internalType": "string",
          "name": "",
          "type": "string"
        }
      ],
      "stateMutability": "view",
      "type": "function"
    },
    {
      "inputs": [],
      "name": "totalSupply",
      "outputs": [
        {
          "internalType": "uint256",
          "name": "",
          "type": "uint256"
        }
      ],
      "stateMutability": "view",
      "type": "function"
    },
    {
      "inputs": [
        {
          "internalType": "address",
          "name": "from",
          "type": "address"
        },
        {
          "internalType": "address",
          "name": "to",
          "type": "address"
        },
        {
          "internalType": "uint256",
          "name": "tokenId",
          "type": "uint256"
        }
      ],
      "name": "transferFrom",
      "outputs": [],
      "stateMutability": "nonpayable",
      "type": "function"
    },
    {
      "inputs": [
        {
          "internalType": "address",
          "name": "newOwner",
          "type": "address"
        }
      ],
      "name": "transferOwnership",
      "outputs": [],
      "stateMutability": "nonpayable",
      "type": "function"
    },
    {
      "inputs": [
        {
          "internalType": "uint256",
          "name": "_ticketId",
          "type": "uint256"
        }
      ],
      "name": "unBoopTicket",
      "outputs": [],
      "stateMutability": "nonpayable",
      "type": "function"
    }
  ],
  "bytecode": "0x60806040523480156200001157600080fd5b5060405162003d3038038062003d3083398181016040528101906200003791906200069e565b6040518060400160405280600c81526020017f5469636b65746d617374657200000000000000000000000000000000000000008152506040518060400160405280600281526020017f544d0000000000000000000000000000000000000000000000000000000000008152508160009080519060200190620000bb92919062000565565b508060019080519060200190620000d492919062000565565b5050506000620000e96200026160201b60201c565b905080600760006101000a81548173ffffffffffffffffffffffffffffffffffffffff021916908373ffffffffffffffffffffffffffffffffffffffff1602179055508073ffffffffffffffffffffffffffffffffffffffff16600073ffffffffffffffffffffffffffffffffffffffff167f8be0079c531659141344cd1fd0a4f28419497f9722a3daafe3b4186f6b6457e060405160405180910390a35060005b828110156200025157620001ab60086200026960201b620011ec1760201c565b6000620001c460086200027f60201b620012021760201c565b9050620001d833826200028d60201b60201c565b620001ea81846200047360201b60201c565b3373ffffffffffffffffffffffffffffffffffffffff167f1f53feecfc2a9dbbe632c3b5c8d6d675d4f60f1154e618468fc2ea833a0b6702826040516200023291906200085b565b60405180910390a25080806200024890620009c3565b9150506200018b565b5081600981905550505062000ab8565b600033905090565b6001816000016000828254019250508190555050565b600081600001549050919050565b600073ffffffffffffffffffffffffffffffffffffffff168273ffffffffffffffffffffffffffffffffffffffff16141562000300576040517f08c379a0000000000000000000000000000000000000000000000000000000008152600401620002f79062000839565b60405180910390fd5b6200031181620004f460201b60201c565b1562000354576040517f08c379a00000000000000000000000000000000000000000000000000000000081526004016200034b90620007f5565b60405180910390fd5b62000368600083836200056060201b60201c565b6001600360008473ffffffffffffffffffffffffffffffffffffffff1673ffffffffffffffffffffffffffffffffffffffff1681526020019081526020016000206000828254620003ba9190620008f0565b92505081905550816002600083815260200190815260200160002060006101000a81548173ffffffffffffffffffffffffffffffffffffffff021916908373ffffffffffffffffffffffffffffffffffffffff160217905550808273ffffffffffffffffffffffffffffffffffffffff16600073ffffffffffffffffffffffffffffffffffffffff167fddf252ad1be2c89b69c2b068fc378daa952ba7f163c4a11628f55a4df523b3ef60405160405180910390a45050565b6200048482620004f460201b60201c565b620004c6576040517f08c379a0000000000000000000000000000000000000000000000000000000008152600401620004bd9062000817565b60405180910390fd5b80600660008481526020019081526020016000209080519060200190620004ef92919062000565565b505050565b60008073ffffffffffffffffffffffffffffffffffffffff166002600084815260200190815260200160002060009054906101000a900473ffffffffffffffffffffffffffffffffffffffff1673ffffffffffffffffffffffffffffffffffffffff1614159050919050565b505050565b82805462000573906200098d565b90600052602060002090601f016020900481019282620005975760008555620005e3565b82601f10620005b257805160ff1916838001178555620005e3565b82800160010185558215620005e3579182015b82811115620005e2578251825591602001919060010190620005c5565b5b509050620005f29190620005f6565b5090565b5b8082111562000611576000816000905550600101620005f7565b5090565b60006200062c6200062684620008ac565b62000878565b9050828152602081018484840111156200064557600080fd5b6200065284828562000957565b509392505050565b600082601f8301126200066c57600080fd5b81516200067e84826020860162000615565b91505092915050565b600081519050620006988162000a9e565b92915050565b60008060408385031215620006b257600080fd5b6000620006c28582860162000687565b925050602083015167ffffffffffffffff811115620006e057600080fd5b620006ee858286016200065a565b9150509250929050565b600062000707601c83620008df565b91507f4552433732313a20746f6b656e20616c7265616479206d696e746564000000006000830152602082019050919050565b600062000749602e83620008df565b91507f45524337323155524953746f726167653a2055524920736574206f66206e6f6e60008301527f6578697374656e7420746f6b656e0000000000000000000000000000000000006020830152604082019050919050565b6000620007b1602083620008df565b91507f4552433732313a206d696e7420746f20746865207a65726f20616464726573736000830152602082019050919050565b620007ef816200094d565b82525050565b600060208201905081810360008301526200081081620006f8565b9050919050565b6000602082019050818103600083015262000832816200073a565b9050919050565b600060208201905081810360008301526200085481620007a2565b9050919050565b6000602082019050620008726000830184620007e4565b92915050565b6000604051905081810181811067ffffffffffffffff82111715620008a257620008a162000a6f565b5b8060405250919050565b600067ffffffffffffffff821115620008ca57620008c962000a6f565b5b601f19601f8301169050602081019050919050565b600082825260208201905092915050565b6000620008fd826200094d565b91506200090a836200094d565b9250827fffffffffffffffffffffffffffffffffffffffffffffffffffffffffffffffff0382111562000942576200094162000a11565b5b828201905092915050565b6000819050919050565b60005b83811015620009775780820151818401526020810190506200095a565b8381111562000987576000848401525b50505050565b60006002820490506001821680620009a657607f821691505b60208210811415620009bd57620009bc62000a40565b5b50919050565b6000620009d0826200094d565b91507fffffffffffffffffffffffffffffffffffffffffffffffffffffffffffffffff82141562000a065762000a0562000a11565b5b600182019050919050565b7f4e487b7100000000000000000000000000000000000000000000000000000000600052601160045260246000fd5b7f4e487b7100000000000000000000000000000000000000000000000000000000600052602260045260246000fd5b7f4e487b7100000000000000000000000000000000000000000000000000000000600052604160045260246000fd5b62000aa9816200094d565b811462000ab557600080fd5b50565b6132688062000ac86000396000f3fe608060405234801561001057600080fd5b50600436106101375760003560e01c80636352211e116100b8578063a22cb4651161007c578063a22cb46514610326578063b88d4fde14610342578063c87b56dd1461035e578063e985e9c51461038e578063ecf48e36146103be578063f2fde38b146103ee57610137565b80636352211e1461028057806370a08231146102b0578063715018a6146102e05780638da5cb5b146102ea57806395d89b411461030857610137565b806323b872dd116100ff57806323b872dd146101f457806327d7091c1461021057806342842e0e1461022c5780634707746c146102485780635d0fd8be1461026457610137565b806301ffc9a71461013c57806306fdde031461016c578063081812fc1461018a578063095ea7b3146101ba57806318160ddd146101d6575b600080fd5b610156600480360381019061015191906122c2565b61040a565b6040516101639190612b80565b60405180910390f35b6101746104ec565b6040516101819190612b9b565b60405180910390f35b6101a4600480360381019061019f9190612314565b61057e565b6040516101b19190612b19565b60405180910390f35b6101d460048036038101906101cf9190612286565b610603565b005b6101de61071b565b6040516101eb9190612dfd565b60405180910390f35b61020e6004803603810190610209919061212c565b610721565b005b61022a60048036038101906102259190612314565b610781565b005b6102466004803603810190610241919061212c565b61082c565b005b610262600480360381019061025d9190612232565b61084c565b005b61027e6004803603810190610279919061233d565b610947565b005b61029a60048036038101906102959190612314565b610a34565b6040516102a79190612b19565b60405180910390f35b6102ca60048036038101906102c591906120c7565b610ae6565b6040516102d79190612dfd565b60405180910390f35b6102e8610b9e565b005b6102f2610cdb565b6040516102ff9190612b19565b60405180910390f35b610310610d05565b60405161031d9190612b9b565b60405180910390f35b610340600480360381019061033b91906121f6565b610d97565b005b61035c6004803603810190610357919061217b565b610f18565b005b61037860048036038101906103739190612314565b610f7a565b6040516103859190612b9b565b60405180910390f35b6103a860048036038101906103a391906120f0565b610f8c565b6040516103b59190612b80565b60405180910390f35b6103d860048036038101906103d39190612314565b611020565b6040516103e59190612b80565b60405180910390f35b610408600480360381019061040391906120c7565b611040565b005b60007f80ac58cd000000000000000000000000000000000000000000000000000000007bffffffffffffffffffffffffffffffffffffffffffffffffffffffff1916827bffffffffffffffffffffffffffffffffffffffffffffffffffffffff191614806104d557507f5b5e139f000000000000000000000000000000000000000000000000000000007bffffffffffffffffffffffffffffffffffffffffffffffffffffffff1916827bffffffffffffffffffffffffffffffffffffffffffffffffffffffff1916145b806104e557506104e482611210565b5b9050919050565b6060600080546104fb9061305d565b80601f01602080910402602001604051908101604052809291908181526020018280546105279061305d565b80156105745780601f1061054957610100808354040283529160200191610574565b820191906000526020600020905b81548152906001019060200180831161055757829003601f168201915b5050505050905090565b60006105898261127a565b6105c8576040517f08c379a00000000000000000000000000000000000000000000000000000000081526004016105bf90612d3d565b60405180910390fd5b6004600083815260200190815260200160002060009054906101000a900473ffffffffffffffffffffffffffffffffffffffff169050919050565b600061060e82610a34565b90508073ffffffffffffffffffffffffffffffffffffffff168373ffffffffffffffffffffffffffffffffffffffff16141561067f576040517f08c379a000000000000000000000000000000000000000000000000000000000815260040161067690612dbd565b60405180910390fd5b8073ffffffffffffffffffffffffffffffffffffffff1661069e6112e6565b73ffffffffffffffffffffffffffffffffffffffff1614806106cd57506106cc816106c76112e6565b610f8c565b5b61070c576040517f08c379a000000000000000000000000000000000000000000000000000000000815260040161070390612c7d565b60405180910390fd5b61071683836112ee565b505050565b60095481565b61073261072c6112e6565b826113a7565b610771576040517f08c379a000000000000000000000000000000000000000000000000000000000815260040161076890612ddd565b60405180910390fd5b61077c838383611485565b505050565b6107896112e6565b73ffffffffffffffffffffffffffffffffffffffff166107a7610cdb565b73ffffffffffffffffffffffffffffffffffffffff16146107fd576040517f08c379a00000000000000000000000000000000000000000000000000000000081526004016107f490612d5d565b60405180910390fd5b6000600a600083815260200190815260200160002060006101000a81548160ff02191690831515021790555050565b61084783838360405180602001604052806000815250610f18565b505050565b6108546112e6565b73ffffffffffffffffffffffffffffffffffffffff16610872610cdb565b73ffffffffffffffffffffffffffffffffffffffff16146108c8576040517f08c379a00000000000000000000000000000000000000000000000000000000081526004016108bf90612d5d565b60405180910390fd5b6108d260086111ec565b60006108de6008611202565b90506108ea83826116e1565b6108f481836118af565b8273ffffffffffffffffffffffffffffffffffffffff167f1f53feecfc2a9dbbe632c3b5c8d6d675d4f60f1154e618468fc2ea833a0b67028260405161093a9190612dfd565b60405180910390a2505050565b61094f6112e6565b73ffffffffffffffffffffffffffffffffffffffff1661096d610cdb565b73ffffffffffffffffffffffffffffffffffffffff16146109c3576040517f08c379a00000000000000000000000000000000000000000000000000000000081526004016109ba90612d5d565b60405180910390fd5b6001600a600084815260200190815260200160002060006101000a81548160ff0219169083151502179055506109f982826118af565b7fa5fd8a2cb3f4c9a37c4b043e96b874bb177e8052bd65aed463c4324c59c19e7982604051610a289190612dfd565b60405180910390a15050565b6000806002600084815260200190815260200160002060009054906101000a900473ffffffffffffffffffffffffffffffffffffffff169050600073ffffffffffffffffffffffffffffffffffffffff168173ffffffffffffffffffffffffffffffffffffffff161415610add576040517f08c379a0000000000000000000000000000000000000000000000000000000008152600401610ad490612cbd565b60405180910390fd5b80915050919050565b60008073ffffffffffffffffffffffffffffffffffffffff168273ffffffffffffffffffffffffffffffffffffffff161415610b57576040517f08c379a0000000000000000000000000000000000000000000000000000000008152600401610b4e90612c9d565b60405180910390fd5b600360008373ffffffffffffffffffffffffffffffffffffffff1673ffffffffffffffffffffffffffffffffffffffff168152602001908152602001600020549050919050565b610ba66112e6565b73ffffffffffffffffffffffffffffffffffffffff16610bc4610cdb565b73ffffffffffffffffffffffffffffffffffffffff1614610c1a576040517f08c379a0000000000000000000000000000000000000000000000000000000008152600401610c1190612d5d565b60405180910390fd5b600073ffffffffffffffffffffffffffffffffffffffff16600760009054906101000a900473ffffffffffffffffffffffffffffffffffffffff1673ffffffffffffffffffffffffffffffffffffffff167f8be0079c531659141344cd1fd0a4f28419497f9722a3daafe3b4186f6b6457e060405160405180910390a36000600760006101000a81548173ffffffffffffffffffffffffffffffffffffffff021916908373ffffffffffffffffffffffffffffffffffffffff160217905550565b6000600760009054906101000a900473ffffffffffffffffffffffffffffffffffffffff16905090565b606060018054610d149061305d565b80601f0160208091040260200160405190810160405280929190818152602001828054610d409061305d565b8015610d8d5780601f10610d6257610100808354040283529160200191610d8d565b820191906000526020600020905b815481529060010190602001808311610d7057829003601f168201915b5050505050905090565b610d9f6112e6565b73ffffffffffffffffffffffffffffffffffffffff168273ffffffffffffffffffffffffffffffffffffffff161415610e0d576040517f08c379a0000000000000000000000000000000000000000000000000000000008152600401610e0490612c3d565b60405180910390fd5b8060056000610e1a6112e6565b73ffffffffffffffffffffffffffffffffffffffff1673ffffffffffffffffffffffffffffffffffffffff16815260200190815260200160002060008473ffffffffffffffffffffffffffffffffffffffff1673ffffffffffffffffffffffffffffffffffffffff16815260200190815260200160002060006101000a81548160ff0219169083151502179055508173ffffffffffffffffffffffffffffffffffffffff16610ec76112e6565b73ffffffffffffffffffffffffffffffffffffffff167f17307eab39ab6107e8899845ad3d59bd9653f200f220920489ca2b5937696c3183604051610f0c9190612b80565b60405180910390a35050565b610f29610f236112e6565b836113a7565b610f68576040517f08c379a0000000000000000000000000000000000000000000000000000000008152600401610f5f90612ddd565b60405180910390fd5b610f7484848484611923565b50505050565b6060610f858261197f565b9050919050565b6000600560008473ffffffffffffffffffffffffffffffffffffffff1673ffffffffffffffffffffffffffffffffffffffff16815260200190815260200160002060008373ffffffffffffffffffffffffffffffffffffffff1673ffffffffffffffffffffffffffffffffffffffff16815260200190815260200160002060009054906101000a900460ff16905092915050565b600a6020528060005260406000206000915054906101000a900460ff1681565b6110486112e6565b73ffffffffffffffffffffffffffffffffffffffff16611066610cdb565b73ffffffffffffffffffffffffffffffffffffffff16146110bc576040517f08c379a00000000000000000000000000000000000000000000000000000000081526004016110b390612d5d565b60405180910390fd5b600073ffffffffffffffffffffffffffffffffffffffff168173ffffffffffffffffffffffffffffffffffffffff16141561112c576040517f08c379a000000000000000000000000000000000000000000000000000000000815260040161112390612bdd565b60405180910390fd5b8073ffffffffffffffffffffffffffffffffffffffff16600760009054906101000a900473ffffffffffffffffffffffffffffffffffffffff1673ffffffffffffffffffffffffffffffffffffffff167f8be0079c531659141344cd1fd0a4f28419497f9722a3daafe3b4186f6b6457e060405160405180910390a380600760006101000a81548173ffffffffffffffffffffffffffffffffffffffff021916908373ffffffffffffffffffffffffffffffffffffffff16021790555050565b6001816000016000828254019250508190555050565b600081600001549050919050565b60007f01ffc9a7000000000000000000000000000000000000000000000000000000007bffffffffffffffffffffffffffffffffffffffffffffffffffffffff1916827bffffffffffffffffffffffffffffffffffffffffffffffffffffffff1916149050919050565b60008073ffffffffffffffffffffffffffffffffffffffff166002600084815260200190815260200160002060009054906101000a900473ffffffffffffffffffffffffffffffffffffffff1673ffffffffffffffffffffffffffffffffffffffff1614159050919050565b600033905090565b816004600083815260200190815260200160002060006101000a81548173ffffffffffffffffffffffffffffffffffffffff021916908373ffffffffffffffffffffffffffffffffffffffff160217905550808273ffffffffffffffffffffffffffffffffffffffff1661136183610a34565b73ffffffffffffffffffffffffffffffffffffffff167f8c5be1e5ebec7d5bd14f71427d1e84f3dd0314c0f7b2291e5b200ac8c7c3b92560405160405180910390a45050565b60006113b28261127a565b6113f1576040517f08c379a00000000000000000000000000000000000000000000000000000000081526004016113e890612c5d565b60405180910390fd5b60006113fc83610a34565b90508073ffffffffffffffffffffffffffffffffffffffff168473ffffffffffffffffffffffffffffffffffffffff16148061146b57508373ffffffffffffffffffffffffffffffffffffffff166114538461057e565b73ffffffffffffffffffffffffffffffffffffffff16145b8061147c575061147b8185610f8c565b5b91505092915050565b8273ffffffffffffffffffffffffffffffffffffffff166114a582610a34565b73ffffffffffffffffffffffffffffffffffffffff16146114fb576040517f08c379a00000000000000000000000000000000000000000000000000000000081526004016114f290612d7d565b60405180910390fd5b600073ffffffffffffffffffffffffffffffffffffffff168273ffffffffffffffffffffffffffffffffffffffff16141561156b576040517f08c379a000000000000000000000000000000000000000000000000000000000815260040161156290612c1d565b60405180910390fd5b611576838383611ad1565b6115816000826112ee565b6001600360008573ffffffffffffffffffffffffffffffffffffffff1673ffffffffffffffffffffffffffffffffffffffff16815260200190815260200160002060008282546115d19190612f73565b925050819055506001600360008473ffffffffffffffffffffffffffffffffffffffff1673ffffffffffffffffffffffffffffffffffffffff16815260200190815260200160002060008282546116289190612eec565b92505081905550816002600083815260200190815260200160002060006101000a81548173ffffffffffffffffffffffffffffffffffffffff021916908373ffffffffffffffffffffffffffffffffffffffff160217905550808273ffffffffffffffffffffffffffffffffffffffff168473ffffffffffffffffffffffffffffffffffffffff167fddf252ad1be2c89b69c2b068fc378daa952ba7f163c4a11628f55a4df523b3ef60405160405180910390a4505050565b600073ffffffffffffffffffffffffffffffffffffffff168273ffffffffffffffffffffffffffffffffffffffff161415611751576040517f08c379a000000000000000000000000000000000000000000000000000000000815260040161174890612cfd565b60405180910390fd5b61175a8161127a565b1561179a576040517f08c379a000000000000000000000000000000000000000000000000000000000815260040161179190612bfd565b60405180910390fd5b6117a660008383611ad1565b6001600360008473ffffffffffffffffffffffffffffffffffffffff1673ffffffffffffffffffffffffffffffffffffffff16815260200190815260200160002060008282546117f69190612eec565b92505081905550816002600083815260200190815260200160002060006101000a81548173ffffffffffffffffffffffffffffffffffffffff021916908373ffffffffffffffffffffffffffffffffffffffff160217905550808273ffffffffffffffffffffffffffffffffffffffff16600073ffffffffffffffffffffffffffffffffffffffff167fddf252ad1be2c89b69c2b068fc378daa952ba7f163c4a11628f55a4df523b3ef60405160405180910390a45050565b6118b88261127a565b6118f7576040517f08c379a00000000000000000000000000000000000000000000000000000000081526004016118ee90612cdd565b60405180910390fd5b8060066000848152602001908152602001600020908051906020019061191e929190611eeb565b505050565b61192e848484611485565b61193a84848484611ad6565b611979576040517f08c379a000000000000000000000000000000000000000000000000000000000815260040161197090612bbd565b60405180910390fd5b50505050565b606061198a8261127a565b6119c9576040517f08c379a00000000000000000000000000000000000000000000000000000000081526004016119c090612d1d565b60405180910390fd5b60006006600084815260200190815260200160002080546119e99061305d565b80601f0160208091040260200160405190810160405280929190818152602001828054611a159061305d565b8015611a625780601f10611a3757610100808354040283529160200191611a62565b820191906000526020600020905b815481529060010190602001808311611a4557829003601f168201915b505050505090506000611a73611c6d565b9050600081511415611a89578192505050611acc565b600082511115611abe578082604051602001611aa6929190612af5565b60405160208183030381529060405292505050611acc565b611ac784611c84565b925050505b919050565b505050565b6000611af78473ffffffffffffffffffffffffffffffffffffffff16611d2b565b15611c60578373ffffffffffffffffffffffffffffffffffffffff1663150b7a02611b206112e6565b8786866040518563ffffffff1660e01b8152600401611b429493929190612b34565b602060405180830381600087803b158015611b5c57600080fd5b505af1925050508015611b8d57506040513d601f19601f82011682018060405250810190611b8a91906122eb565b60015b611c10573d8060008114611bbd576040519150601f19603f3d011682016040523d82523d6000602084013e611bc2565b606091505b50600081511415611c08576040517f08c379a0000000000000000000000000000000000000000000000000000000008152600401611bff90612bbd565b60405180910390fd5b805181602001fd5b63150b7a0260e01b7bffffffffffffffffffffffffffffffffffffffffffffffffffffffff1916817bffffffffffffffffffffffffffffffffffffffffffffffffffffffff191614915050611c65565b600190505b949350505050565b606060405180602001604052806000815250905090565b6060611c8f8261127a565b611cce576040517f08c379a0000000000000000000000000000000000000000000000000000000008152600401611cc590612d9d565b60405180910390fd5b6000611cd8611c6d565b90506000815111611cf85760405180602001604052806000815250611d23565b80611d0284611d3e565b604051602001611d13929190612af5565b6040516020818303038152906040525b915050919050565b600080823b905060008111915050919050565b60606000821415611d86576040518060400160405280600181526020017f30000000000000000000000000000000000000000000000000000000000000008152509050611ee6565b600082905060005b60008214611db8578080611da19061308f565b915050600a82611db19190612f42565b9150611d8e565b60008167ffffffffffffffff811115611dfa577f4e487b7100000000000000000000000000000000000000000000000000000000600052604160045260246000fd5b6040519080825280601f01601f191660200182016040528015611e2c5781602001600182028036833780820191505090505b5090505b60008514611edf57600182611e459190612f73565b9150600a85611e5491906130d8565b6030611e609190612eec565b60f81b818381518110611e9c577f4e487b7100000000000000000000000000000000000000000000000000000000600052603260045260246000fd5b60200101907effffffffffffffffffffffffffffffffffffffffffffffffffffffffffffff1916908160001a905350600a85611ed89190612f42565b9450611e30565b8093505050505b919050565b828054611ef79061305d565b90600052602060002090601f016020900481019282611f195760008555611f60565b82601f10611f3257805160ff1916838001178555611f60565b82800160010185558215611f60579182015b82811115611f5f578251825591602001919060010190611f44565b5b509050611f6d9190611f71565b5090565b5b80821115611f8a576000816000905550600101611f72565b5090565b6000611fa1611f9c84612e49565b612e18565b905082815260208101848484011115611fb957600080fd5b611fc484828561301b565b509392505050565b6000611fdf611fda84612e79565b612e18565b905082815260208101848484011115611ff757600080fd5b61200284828561301b565b509392505050565b600081359050612019816131d6565b92915050565b60008135905061202e816131ed565b92915050565b60008135905061204381613204565b92915050565b60008151905061205881613204565b92915050565b600082601f83011261206f57600080fd5b813561207f848260208601611f8e565b91505092915050565b600082601f83011261209957600080fd5b81356120a9848260208601611fcc565b91505092915050565b6000813590506120c18161321b565b92915050565b6000602082840312156120d957600080fd5b60006120e78482850161200a565b91505092915050565b6000806040838503121561210357600080fd5b60006121118582860161200a565b92505060206121228582860161200a565b9150509250929050565b60008060006060848603121561214157600080fd5b600061214f8682870161200a565b93505060206121608682870161200a565b9250506040612171868287016120b2565b9150509250925092565b6000806000806080858703121561219157600080fd5b600061219f8782880161200a565b94505060206121b08782880161200a565b93505060406121c1878288016120b2565b925050606085013567ffffffffffffffff8111156121de57600080fd5b6121ea8782880161205e565b91505092959194509250565b6000806040838503121561220957600080fd5b60006122178582860161200a565b92505060206122288582860161201f565b9150509250929050565b6000806040838503121561224557600080fd5b60006122538582860161200a565b925050602083013567ffffffffffffffff81111561227057600080fd5b61227c85828601612088565b9150509250929050565b6000806040838503121561229957600080fd5b60006122a78582860161200a565b92505060206122b8858286016120b2565b9150509250929050565b6000602082840312156122d457600080fd5b60006122e284828501612034565b91505092915050565b6000602082840312156122fd57600080fd5b600061230b84828501612049565b91505092915050565b60006020828403121561232657600080fd5b6000612334848285016120b2565b91505092915050565b6000806040838503121561235057600080fd5b600061235e858286016120b2565b925050602083013567ffffffffffffffff81111561237b57600080fd5b61238785828601612088565b9150509250929050565b61239a81612fa7565b82525050565b6123a981612fb9565b82525050565b60006123ba82612ea9565b6123c48185612ebf565b93506123d481856020860161302a565b6123dd816131c5565b840191505092915050565b60006123f382612eb4565b6123fd8185612ed0565b935061240d81856020860161302a565b612416816131c5565b840191505092915050565b600061242c82612eb4565b6124368185612ee1565b935061244681856020860161302a565b80840191505092915050565b600061245f603283612ed0565b91507f4552433732313a207472616e7366657220746f206e6f6e20455243373231526560008301527f63656976657220696d706c656d656e74657200000000000000000000000000006020830152604082019050919050565b60006124c5602683612ed0565b91507f4f776e61626c653a206e6577206f776e657220697320746865207a65726f206160008301527f64647265737300000000000000000000000000000000000000000000000000006020830152604082019050919050565b600061252b601c83612ed0565b91507f4552433732313a20746f6b656e20616c7265616479206d696e746564000000006000830152602082019050919050565b600061256b602483612ed0565b91507f4552433732313a207472616e7366657220746f20746865207a65726f2061646460008301527f72657373000000000000000000000000000000000000000000000000000000006020830152604082019050919050565b60006125d1601983612ed0565b91507f4552433732313a20617070726f766520746f2063616c6c6572000000000000006000830152602082019050919050565b6000612611602c83612ed0565b91507f4552433732313a206f70657261746f7220717565727920666f72206e6f6e657860008301527f697374656e7420746f6b656e00000000000000000000000000000000000000006020830152604082019050919050565b6000612677603883612ed0565b91507f4552433732313a20617070726f76652063616c6c6572206973206e6f74206f7760008301527f6e6572206e6f7220617070726f76656420666f7220616c6c00000000000000006020830152604082019050919050565b60006126dd602a83612ed0565b91507f4552433732313a2062616c616e636520717565727920666f7220746865207a6560008301527f726f2061646472657373000000000000000000000000000000000000000000006020830152604082019050919050565b6000612743602983612ed0565b91507f4552433732313a206f776e657220717565727920666f72206e6f6e657869737460008301527f656e7420746f6b656e00000000000000000000000000000000000000000000006020830152604082019050919050565b60006127a9602e83612ed0565b91507f45524337323155524953746f726167653a2055524920736574206f66206e6f6e60008301527f6578697374656e7420746f6b656e0000000000000000000000000000000000006020830152604082019050919050565b600061280f602083612ed0565b91507f4552433732313a206d696e7420746f20746865207a65726f20616464726573736000830152602082019050919050565b600061284f603183612ed0565b91507f45524337323155524953746f726167653a2055524920717565727920666f722060008301527f6e6f6e6578697374656e7420746f6b656e0000000000000000000000000000006020830152604082019050919050565b60006128b5602c83612ed0565b91507f4552433732313a20617070726f76656420717565727920666f72206e6f6e657860008301527f697374656e7420746f6b656e00000000000000000000000000000000000000006020830152604082019050919050565b600061291b602083612ed0565b91507f4f776e61626c653a2063616c6c6572206973206e6f7420746865206f776e65726000830152602082019050919050565b600061295b602983612ed0565b91507f4552433732313a207472616e73666572206f6620746f6b656e2074686174206960008301527f73206e6f74206f776e00000000000000000000000000000000000000000000006020830152604082019050919050565b60006129c1602f83612ed0565b91507f4552433732314d657461646174613a2055524920717565727920666f72206e6f60008301527f6e6578697374656e7420746f6b656e00000000000000000000000000000000006020830152604082019050919050565b6000612a27602183612ed0565b91507f4552433732313a20617070726f76616c20746f2063757272656e74206f776e6560008301527f72000000000000000000000000000000000000000000000000000000000000006020830152604082019050919050565b6000612a8d603183612ed0565b91507f4552433732313a207472616e736665722063616c6c6572206973206e6f74206f60008301527f776e6572206e6f7220617070726f7665640000000000000000000000000000006020830152604082019050919050565b612aef81613011565b82525050565b6000612b018285612421565b9150612b0d8284612421565b91508190509392505050565b6000602082019050612b2e6000830184612391565b92915050565b6000608082019050612b496000830187612391565b612b566020830186612391565b612b636040830185612ae6565b8181036060830152612b7581846123af565b905095945050505050565b6000602082019050612b9560008301846123a0565b92915050565b60006020820190508181036000830152612bb581846123e8565b905092915050565b60006020820190508181036000830152612bd681612452565b9050919050565b60006020820190508181036000830152612bf6816124b8565b9050919050565b60006020820190508181036000830152612c168161251e565b9050919050565b60006020820190508181036000830152612c368161255e565b9050919050565b60006020820190508181036000830152612c56816125c4565b9050919050565b60006020820190508181036000830152612c7681612604565b9050919050565b60006020820190508181036000830152612c968161266a565b9050919050565b60006020820190508181036000830152612cb6816126d0565b9050919050565b60006020820190508181036000830152612cd681612736565b9050919050565b60006020820190508181036000830152612cf68161279c565b9050919050565b60006020820190508181036000830152612d1681612802565b9050919050565b60006020820190508181036000830152612d3681612842565b9050919050565b60006020820190508181036000830152612d56816128a8565b9050919050565b60006020820190508181036000830152612d768161290e565b9050919050565b60006020820190508181036000830152612d968161294e565b9050919050565b60006020820190508181036000830152612db6816129b4565b9050919050565b60006020820190508181036000830152612dd681612a1a565b9050919050565b60006020820190508181036000830152612df681612a80565b9050919050565b6000602082019050612e126000830184612ae6565b92915050565b6000604051905081810181811067ffffffffffffffff82111715612e3f57612e3e613196565b5b8060405250919050565b600067ffffffffffffffff821115612e6457612e63613196565b5b601f19601f8301169050602081019050919050565b600067ffffffffffffffff821115612e9457612e93613196565b5b601f19601f8301169050602081019050919050565b600081519050919050565b600081519050919050565b600082825260208201905092915050565b600082825260208201905092915050565b600081905092915050565b6000612ef782613011565b9150612f0283613011565b9250827fffffffffffffffffffffffffffffffffffffffffffffffffffffffffffffffff03821115612f3757612f36613109565b5b828201905092915050565b6000612f4d82613011565b9150612f5883613011565b925082612f6857612f67613138565b5b828204905092915050565b6000612f7e82613011565b9150612f8983613011565b925082821015612f9c57612f9b613109565b5b828203905092915050565b6000612fb282612ff1565b9050919050565b60008115159050919050565b60007fffffffff0000000000000000000000000000000000000000000000000000000082169050919050565b600073ffffffffffffffffffffffffffffffffffffffff82169050919050565b6000819050919050565b82818337600083830152505050565b60005b8381101561304857808201518184015260208101905061302d565b83811115613057576000848401525b50505050565b6000600282049050600182168061307557607f821691505b6020821081141561308957613088613167565b5b50919050565b600061309a82613011565b91507fffffffffffffffffffffffffffffffffffffffffffffffffffffffffffffffff8214156130cd576130cc613109565b5b600182019050919050565b60006130e382613011565b91506130ee83613011565b9250826130fe576130fd613138565b5b828206905092915050565b7f4e487b7100000000000000000000000000000000000000000000000000000000600052601160045260246000fd5b7f4e487b7100000000000000000000000000000000000000000000000000000000600052601260045260246000fd5b7f4e487b7100000000000000000000000000000000000000000000000000000000600052602260045260246000fd5b7f4e487b7100000000000000000000000000000000000000000000000000000000600052604160045260246000fd5b6000601f19601f8301169050919050565b6131df81612fa7565b81146131ea57600080fd5b50565b6131f681612fb9565b811461320157600080fd5b50565b61320d81612fc5565b811461321857600080fd5b50565b61322481613011565b811461322f57600080fd5b5056fea26469706673582212203a2d3bdce214d89fd0d96922dbc5fa262aa2c661774fdcfb507da59063eefa0464736f6c63430008000033",
  "linkReferences": {},
  "deployedLinkReferences": {}
}